:020000040800F2
:1000000020E10120550200082F0F0008CF0B000847
:100010002D0F000829040008973800080000000090
:100020000000000000000000000000009D0100082A
:100030002D0B000800000000F1010008411C000821
:100040006F0200086F0200086F0200086F020008CC
:100050006F0200086F0200086F0200086F020008BC
:100060006F0200086F0200086F0200086F020008AC
:100070006F0200086F0200086F0200086F0200089C
:100080006F0200086F0200086F0200086F0200088C
:100090006F0200086F0200086F0200086F0200087C
:1000A0006F0200086F0200086F0200086F0200086C
:1000B0006F0200086F0200086F0200086F0200085C
:1000C0006F0200086F0200086F0200086F0200084C
:1000D0006F020008E91F0008292000086F020008CD
:1000E0006F0200086F0200086F0200086F0200082C
:1000F0006F0200086F0200086F0200086F0200081C
:100100006F0200087D1700086F0200086F020008E8
:100110006F0200086F0200086F0200086F020008FB
:100120006F0200086F0200086F0200086F020008EB
:100130006F0200086F0200086F0200086F020008DB
:100140006F0200086F0200086F020008AD0F000880
:100150006F0200086F0200086F0200086F020008BB
:100160006F0200086F0200086F0200086F020008AB
:100170006F0200086F0200086F0200086F0200089B
:100180006F0200086F020008DFF80CD000F0F8F8EA
:10019000004800470160000820E101202A4B19684F
:1001A0000868B0E8F04F80F30988BFF36F8F4FF015
:1001B000000080F3118870470000000006480068C6
:1001C000006880F3088862B661B6BFF34F8FBFF353
:1001D0006F8F00DF00BF00BF08ED00E0DFF80C000C
:1001E000016841F470010160704700BF88ED00E0D4
:1001F000EFF30980BFF36F8F134B1A681EF0100FD7
:1002000008BF20ED108A20E9F04F106008B44FF0CD
:10021000500080F31188BFF34F8FBFF36F8F07F04B
:10022000BBFA4FF0000080F3118808BC1968086819
:10023000B0E8F04F1EF0100F08BFB0EC108A80F34A
:100240000988BFF36F8F70472C000020EFF3058003
:10025000704700000648804706480047FEE7FEE773
:10026000FEE7FEE7FEE7FEE7FEE7FEE7FEE7FEE766
:10027000551C0008890100082DE9F05F05460020A3
:1002800092469B4688460646814640241BE0284607
:1002900041464746224600F063F853465A46C01A84
:1002A000914110D311461846224600F04AF82D1A03
:1002B00067EB01084F4622460120002100F041F87B
:1002C00017EB00094E41201EA4F10104DFDC484673
:1002D00031462A464346BDE8F09F40EA01039B07AA
:1002E00003D009E008C9121F08C0042AFAD203E0AB
:1002F00011F8013B00F8013B521EF9D27047D2B20F
:1003000001E000F8012B491EFBD270470022F6E7FE
:1003100010B513460A4604461946FFF7F0FF20467B
:1003200010BD0246C9B200E0401C0378002BFBD18F
:1003300002E003788B4203D0401E9042F9D20020A5
:100340007047202A04DB203A00FA02F100207047AF
:100350009140C2F1200320FA03F319439040704703
:10036000202A04DB203A21FA02F00021704721FA0A
:1003700002F3D040C2F12002914008431946704771
:10038000064C074D06E0E06840F0010394E80700E2
:1003900098471034AC42F6D3FFF7FAFE242F030837
:1003A000442F030870B58C1810F8015B15F0070393
:1003B00001D110F8013B2A1106D110F8012B03E0FE
:1003C00010F8016B01F8016B5B1EF9D12B0705D406
:1003D0000023521E0DD401F8013BFAE710F8013B4F
:1003E000CB1A921C03E013F8015B01F8015B521E6B
:1003F000F9D5A142D8D3002070BD000003F0D6FA91
:10040000014603A003F0B0FB05F0C0FA06F0F8FEC9
:100410007732357136345F726561645F4944203DDF
:100420002025780D0A000000FEE70000104A116840
:1004300011F0450FFBD00F4A4B0703D50420106085
:1004400003207047C90702D0012010607047084997
:1004500024390968814201D01020704740F2FF50D2
:10046000106003482038006800F008007047000062
:10047000342C0140382C014010B50B4603F07F02AC
:1004800002EB82011C0600EBC10102D501F58E7161
:1004900001E001F55D710A70DA094A7002F0AEFF01
:1004A000002010BD10B50A46110602F07F0306D5E4
:1004B00003EB830100EBC10101F58E7105E002EB56
:1004C000820100EBC10101F55D7100248C700B709D
:1004D000D2094A7002F074FF002010BD10B50A0660
:1004E00004D501F07F0103F0D1F801E003F0B0F88A
:1004F000002010BD70B50D4605F07F0404EB8401AB
:100500002E0600EBC10102D501F58E7101E001F567
:100510005D710C70ED094D708A60CB7005B1CC80B7
:10052000022B01D100220A7102F01CFF002070BDD5
:1005300010B501F07F0404EB840100EBC10101F56B
:100540005D71CA604B6100238B614B700C70C37886
:10055000012B00D10A610A781AB102F08AFF00204B
:1005600010BD02F05EFEFAE7002261F30A12006994
:10057000016811430160704710B50A46110602F088
:100580007F0306D503EB830100EBC10101F58E71FA
:1005900005E002EB820100EBC10101F55D71012470
:1005A0008C700B70D2094A7002F043FF002010BD1E
:1005B00070B501F07F0404EB840100EBC10101F58B
:1005C0008E7101254D700C70CA600A6100228A612B
:1005D0004B61002C03D002F04CFF002070BD02F0F4
:1005E00020FEFAE738B50446204602F0F5FDE06843
:1005F000C5680095204603F06BF8014600200329EA
:1006000011D00120A0704020A08025F4705000F58A
:10061000A0500090E1680098C8604FF40050E16875
:100620004861012038BDA0704FF40070A08025F40F
:10063000705000F510500090ECE70000F8B505464A
:10064000002400200090284603F071F8064658E088
:10065000F00754D0E1B2284600F01AFA0090C00723
:100660001CD0012101FA04F22869436B93434363D0
:10067000009105EB8400806981602448E1B2006844
:10068000426828469047E878012807D134B995F8A0
:100690001101042802D1284602F048FE0098000704
:1006A00005D50820009005EB8401896988600098D1
:1006B000C00605D51020009005EB8401896988608B
:1006C0000098400605D54020009005EB840189691B
:1006D00088600098800705D50220009005EB840112
:1006E000896988600098000609D52146284600F0EF
:1006F000DDF98020009005EB840189698860641C25
:100700007608002EA4D10120F8BD0000EC000020E6
:100710002DE9FC410546002400200190284603F005
:100720000CF80646274F47E0F00743D0E1B22846D1
:1007300003F009F80190C00726D00121019105EBD3
:100740008400426D9160E97801290DD1406D006906
:10075000009004EB840105EBC101C0F31200D1F855
:100760007C23101AC1F88C033868E1B2026828466D
:100770009047E878012807D134B995F81101052888
:1007800002D1284602F0D2FD0198800705D502204B
:10079000019005EB8401496D88600198000709D537
:1007A00038688168284688470820019005EB840155
:1007B000496D8860641C7608002EB5D10120BDE823
:1007C000FC810000EC00002038B50446A07A002827
:1007D00009D0D4F80C0120F0020020F001000090B4
:1007E000D4F80C1108602069416821F001014160D2
:1007F000054800688169204688474FF00040E1685D
:100800004861012038BD0000EC0000207CB50546A1
:1008100010200190E868816921F010018161E86889
:10082000006A009000F00F0101EB810105EBC104AB
:1008300004F55D74C0F34341072923D2DFE801F0DA
:10084000222204222222160047F6F071084219D013
:10085000C0F30A1632462846E16802F07CFFE068E1
:100860003044E060A0693044A0610BE0082205F24A
:10087000CC51284602F06FFF0099A069C1F30A111C
:100880000844A061E868816941F01001816101209C
:100890007CBD000010B50446044920460968C968BB
:1008A00088470821E0684161012010BDEC0000206C
:1008B0001FB504460020009094F8120100901748DC
:1008C00000684169204688472069806801904FF49C
:1008D00000610391E2685161A17AE1B1C0071AD0C9
:1008E00094F81501012816D19DF80000032812D1B3
:1008F000D4F80C01016841F001010160032002906D
:10090000D4F80C01016841F003010160044801685A
:1009100041F00601016004B0012010BDEC00002090
:1009200010ED00E070B586B00446002505950495ED
:10093000039502950095012601962069416821F0F2
:10094000010141600021204602F0A0FE0020FF22AC
:1009500006E004EB80018B699A60496D8A60401C57
:1009600061788142F5D821694FF0FF308861ADF898
:100970001460ADF8166021690598C86145F008005B
:1009800040F0010040F002002169486145F001009B
:1009900040F0080040F00200216908612069016808
:1009A00021F4FE610160204602F0C0FC4FF480504B
:1009B000E16848610348006801692046884706B03D
:1009C000012070BDEC00002070B50446204602F006
:1009D000D3FE012584F81251002084F8140100226E
:1009E00040230DE002EB820104EBC10101F58E71A1
:1009F0004D700A70CA80C8708B60C8604861521C14
:100A000061789142EED800220DE002EB820104EB06
:100A1000C10101F55D7148700A70CA80C8708B60B1
:100A2000C8604861521C61789142EED8204602F0BD
:100A3000CBFB204602F0A4FA0021204602F0FCFE87
:100A4000204602F0EFFA2046BDE8704002F0F8BD03
:100A500010B50446054920460968C96988474FF41E
:100A60008011E0684161012010BD0000EC00002011
:100A700010B50446054920460968096A88474FF4BD
:100A80000011E0684161012010BD0000EC00002071
:100A900002691369526BCA4002F0010243EAC212B2
:100AA00000EB810080698068104070472DE9F843B1
:100AB00080460E460020009006EB860008EBC0043E
:100AC00004F58E74D4E90501401AA168814200D270
:100AD0000846C01C4FEA900908EB8607B869806990
:100AE000009016E0D51AA268AA4200D21546E81C6A
:100AF0004FEA9009ABB2F2B24046E16802F0B7FEAD
:100B0000E0682844E060A0692844A061B869806971
:100B10000090009880B2484505D9D4E90523934256
:100B200001D2002ADED10120BDE8F88370472DE90B
:100B3000F041002201274FF0030C07FA02F50B6881
:100B40002B40AB422CD1066853000CFA03F4A643A9
:100B500006600E79D0F800809E4046EA08060660DE
:100B60000E79012E01D0022E12D18668A64386602E
:100B70004E79D0F808809E4046EA080686604668AE
:100B8000AE43466045688E799640B6B235434560BF
:100B9000C568A543C560CC799C40C3681C43C4604C
:100BA000521C102AC9D3BDE8F08110B54B07DB0EEB
:100BB0009A40C90800EB8100016A0F249C40A143C0
:100BC0000162016A1143016210BD01837047FEE7B3
:100BD0003348016841F0010101603248016821F4A5
:100BE00040710160016841F480710160416821F049
:100BF00010014160816821F440718160816841F495
:100C000000718160416941F010014161016821F486
:100C100040610160016841F480610160416821F038
:100C200020014160816821F440618160816841F464
:100C300000618160416941F020014161016821F456
:100C400040510160016841F480510160416821F028
:100C500040014160816821F440518160816841F424
:100C600000518160416941F040014161016821F416
:100C700040410160016841F480410160416821F018
:100C800080014160816821F440418160816841F4C4
:100C900000418160416941F080014161704700007D
:100CA000303802400000024070B505460E490F4C36
:100CB0000A7B002A07D1896829B1617819B9012115
:100CC0002846FFF759FC81212846FFF755FC60783C
:100CD000022807D12846BDE870401F23024A01219F
:100CE000FFF726BC70BD0000CC500120040100209D
:100CF00070B50546234C04F1200061684160A1688D
:100D000081600121284601F004FC1F4E1F280AD1F2
:100D10001E492068884206D1617B012903D8A27B45
:100D20000AB1102A0BD9607B2022052100F046FC75
:100D3000022070702846BDE87040FFF7B5BF114A29
:100D400028460F3200F030FA002804DA2846BDE8C1
:100D50007040FFF7A9BF3178022911D001290FD0C7
:100D600003290DD072882AB12846BDE87040084991
:100D700000F0C0B82846BDE87040002100F09CB8E3
:100D800070BD0000CC5001200401002055534243A7
:100D9000CC20012010B5094C6278022A08D009063F
:100DA0000BD5012A09D0BDE81040012100F084B81C
:100DB0008121FFF7E1FB0020607010BD04010020DD
:100DC00010B504460E480078022809D0032801D047
:100DD000042814D12046BDE81040002100F06CB872
:100DE000084800F10F02417B204600F0DDF90028A1
:100DF00005DA2046BDE81040012100F05DB810BDC5
:100E000004010020CC50012010B504460D480078A4
:100E1000002810D0012813D10B4800F10F02417BAC
:100E2000204600F0C1F900280ADA2046BDE810404B
:100E3000012100F041B82046BDE81040FFF758BF3F
:100E400010BD000004010020CC5001200149002009
:100E5000087070470401002010B504460C4A0021B8
:100E6000117051700B48006801680020884701210B
:100E70002046FFF733FB81212046FFF72FFB20465A
:100E80001F23BDE81040044A0121FFF751BB0000B9
:100E900004010020CC010020CC5001200449002294
:100EA0000A7001224A701F23024A0121FFF740BB4A
:100EB00004010020CC50012010B504460B4A0A4B17
:100EC000136011730A4A002111700D23074A812112
:100ED0002046FFF76DFB054A20461F23203ABDE858
:100EE00010400121FFF724BB55534253EC50012021
:100EF0000401002030B413460A4A92689A4200D393
:100F00001A4693B2074A20329468E41A9460002487
:100F10001473054C042222700A4630BC8121FFF76D
:100F200047BB0000CC50012004010020FEE77047C1
:100F300030B50F23C27801250178002A1FD0154A49
:100F4000126802F4E062C2F5E062C2F30722C2F165
:100F50000404D3404278A24084781C401443220108
:100F600001F1E02181F80024007800F01F018D409C
:100F70004009800000F1E020C0F8005130BD01F0D0
:100F80001F0085404809800000F1E020C0F8805132
:100F900030BD00000CED00E0024908430249086042
:100FA000704700000000FA050CED00E0014801F078
:100FB000CDBB00002CEA0020054A002903D01168AF
:100FC0000143116070471168814311607047000050
:100FD00030380240054A002903D0116801431160EE
:100FE0007047116881431160704700003438024037
:100FF000054A002903D01168014311607047116848
:10100000814311607047000040380240054A0029C2
:1010100003D011680143116070471168814311606A
:101020007047000044380240054A002903D0116887
:1010300001431160704711688143116070470000DF
:101040002438024070B5244B196801F00C01234C80
:1010500000291ED0224E04291DD008291DD004606D
:10106000196801F0F00109091E4A545C0168E14069
:1010700041601C6804F4E054A40A145D21FA04F4ED
:1010800084601B6803F460435B0BD25CD140C16099
:1010900070BD0460E4E70660E2E70F4A121F1168C2
:1010A000C1F38055116801F03F0135B1B6FBF1F194
:1010B0001468C4F38814614305E0B4FBF1F11468CB
:1010C000C4F3881461431268C2F30142521C5200F7
:1010D000B1FBF2F10160C3E7083802400024F400DC
:1010E00040787D01A000002000B51144064A9268B6
:1010F000914206D92122052100F060FA4FF0FF301D
:1011000000BD002000BD0000580100204A78D20731
:1011100002D00D4A07200CE00C4A00EBC000126818
:10112000D26902EB80021079401D0979814200D812
:10113000084607490880074903E0401E80B2135C57
:101140000B540028F9D170473A2E0308CC01002037
:1011500006010020CC20012008200649088006490D
:10116000064A03E0401E80B20B5C13540028F9D1FC
:101170007047000006010020492E0308CC20012002
:101180000820064908800649064A03E0401E80B24E
:101190000B5C13540028F9D17047000006010020B1
:1011A000412E0308CC200120034610B50846114605
:1011B0002B4A13610A78232A3DD00DDC1A2A32D03B
:1011C00005DCE2B1032A1ED0122A11D11FE01B2A2E
:1011D00021D01E2A0CD122E02A2A38D004DC252A6C
:1011E0002DD0282A04D12EE02F2A34D05A2A1ED0FE
:1011F0002022052100F0E2F94FF0FF3010BDBDE8DC
:10120000104000F0F7B9BDE8104000F0A3B9BDE808
:101210001040FFF77BBFBDE8104000F0E5B9BDE826
:10122000104000F0E1B9BDE81040FFF7A9BFBDE8EC
:101230001040FFF791BFBDE8104000F053B9BDE882
:10124000104000F01BB9BDE8104000F0A9B8BDE89F
:10125000104000F013BABDE8104000F0F1B90000F2
:10126000580100202DE9F04106461F4D4FF4405033
:10127000EC68844200D304466A680027B4FBF2F0AD
:101280001FFA80F8D5E906013B46FEF7F5FF024656
:101290001648434616490068D0F810C03046E0476B
:1012A000002807DA11220421304600F087F9781E61
:1012B000BDE8F08123460E4A81212869FFF778F9BD
:1012C000D5E9061009197841C5E90610E868001B40
:1012D000E86008498A68121B8A6010B90649032031
:1012E00008700020E4E7000058010020CC01002035
:1012F000CC200120EC500120040100202DE9F04712
:101300000746234D4FF44056EC68B44200D33446B0
:101310006A684FF00008B4FBF2F01FFA80F9D5E9D3
:1013200006014346FEF7A8FF02461A484B461A49F3
:101330000068D0F814C03846E047002808DA0322D5
:101340000421384600F03AF94FF0FF30BDE8F0874D
:10135000D5E90610091940EB0800C5E90610E86850
:10136000001BE8600D498A68121B8A6050B1B042C8
:1013700000D3304683B2084A01212869FFF7D8F824
:101380000020E3E700212869FFF796FDF8E7000059
:1013900058010020CC010020CC200120EC5001207D
:1013A0002DE9F04780460C46DFF8BC9099F8000024
:1013B000002850D12D4E4FF0FF37307B000607D468
:1013C000707B2022052100F0F9F83846BDE8F0874F
:1013D0002748006881684046884730B13A22022198
:1013E000404600F0EBF83846F0E76079A1782279C2
:1013F00040EA0161E0781F4D000440EA0220014309
:10140000C817C5E90610207AE27940EA0222EA60AC
:101410004046FFF769FE002801DA3846D6E7022089
:1014200089F80000D5E9061268680023A1FB004C8A
:1014300002FB00C201FB0321C5E90641E968414303
:10144000E960B068884206D0707B2022052100F058
:10145000B5F83846BAE708494FF44050088040468E
:10146000BDE8F047FFF7FEBE04010020CC5001208C
:10147000CC010020580100200601002010B50446D0
:101480001448154A0068111D43682046984738B132
:101490003A220221204600F091F84FF0FF3010BDB3
:1014A0000D4A0E48121F9168491E0B0E03700B0C5B
:1014B00043700B0A8370C17051680A0E02710A0CE6
:1014C00042710A0A8271C171054908200880002012
:1014D00010BD0000CC0100205C010020CC200120C8
:1014E000060100207CB505460021174C00226254FD
:1014F000491C89B20C29FAD3144801AA694600682C
:1015000043682846984738B13A220221284600F01D
:1015100055F84FF0FF307CBD0820E0700098401E69
:10152000010E2171010C6171010AA171E0710220AB
:1015300020720198010C6172010AA172E0720449E3
:101540000C20088000207CBDCC200120CC01002094
:101550000601002070B50020144A00231354401CDB
:10156000C0B21228FAD3702010700C20D071104D28
:1015700028786C78A0420FD00E4C14F8306096702A
:1015800004EBC0046679167324795473401CC0B20E
:101590002870042800D12B70074A12201080087987
:1015A000122800D81080002070BD0000CC2001203F
:1015B00058010020FC5001200601002010B5094B05
:1015C000074C587804F83010110204EBC002516047
:1015D000401CC0B25870042801D10020587010BDC2
:1015E000FC5001205801002001490020088070476C
:1015F0000601002070B505460E484FF0FF348168A3
:10160000002906D0407B20220521FFF7D7FF204686
:1016100070BD0948006881682846884730B13A2281
:1016200002212846FFF7CAFF204670BD034900206B
:10163000088070BDCC500120CC01002006010020A4
:1016400010B549784FF0FF34890705D524220521CC
:10165000FFF7B4FF204610BD06498A89896992B216
:10166000FFF742FD002801DA204610BD02490020A4
:10167000088010BD58010020060100202DE9F04728
:1016800081460C46384F3878002804D04846BDE8DB
:10169000F047FFF733BE354E4FF0FF38307B000682
:1016A00007D5707B20220521FFF788FF4046BDE863
:1016B000F0872F4D286881684846884730B13A2224
:1016C00002214846FFF77AFF4046F0E72868C168E4
:1016D0004846884730B1272202214846FFF76EFF6F
:1016E0004046E4E76079A178224D40EA0161E07864
:1016F0000204207942EA00200143C817C5E9061018
:10170000207AE27940EA0222EA604846FFF7ECFCE0
:10171000002801DA4046CAE7D5E9061368680022C6
:10172000A1FB004C03FB00C301FB0231C5E90641EC
:10173000E9684143E960B068884206D0707B2022A6
:101740000521FFF73BFF4046B1E7012038704FF419
:101750004050814200D301468BB2074A01212869DB
:10176000FEF7E6FE0020A2E704010020CC50012095
:10177000CC01002058010020CC20012000F012B83C
:10178000074B1A601B1D1A686FF30A0200F03F0036
:10179000104340EA811040F48060186070470000F8
:1017A000082C0140F0B53448016800F10404334FBF
:1017B000C90504F104054CF23A3619D5B878012868
:1017C0000CD00020F870206840F4807020602868F9
:1017D000B043286001203871F878F0BD0022012163
:1017E0000C20FFF7CDFF0C20FEF720FEF870EAE793
:1017F0000168890709D5206840F002002060286848
:10180000B04328600220F870F0BD0168090709D5CF
:10181000206840F0080020602868B0432860042059
:10182000F870F0BD0168890609D5206840F02000F5
:1018300020602868B04328600620F870F0BD016879
:10184000C90609D5206840F0100020602868B04320
:1018500028600520F870F0BD0068800509D5206873
:1018600040F4007020602868B04328600720F870BA
:10187000F0BD0020F0BD0000342C01400400002029
:101880002DE9F04387B001210846FFF795FB4FF49F
:10189000805801214046FFF7B9FB382705970225FC
:1018A0008DF8185000248DF81A4003208DF8190087
:1018B00001268DF81B60DFF8849005A94846FFF7E4
:1018C00036F9052203214846FFF76FF90522042166
:1018D0004846FFF76AF9052211464846FFF765F9C1
:1018E00001214046FFF7A0FB00214046FFF79CFB8B
:1018F000ADF800404FF48270ADF80200ADF804403E
:10190000ADF80650ADF808602802ADF80A00ADF851
:101910000C70ADF80E400720ADF81000084C694679
:10192000204600F04EF80121204600F033F8FF2059
:1019300000F008F807B0BDE8F083000000040240A2
:101940000030014070B505460A4C0221204600F0E7
:101950002DF80028F9D02946204600F030F8012162
:10196000204600F023F80028F9D0204600F025F8A2
:10197000C0B270BD0030014001460548028822F027
:101980003802028002880A430280012100F002B876
:1019900000300140002904D0018841F0400101805D
:1019A0007047018821F04001018070470246002005
:1019B00012890A4200D001207047808970478181D6
:1019C000704730B5028802F441530A884C88CD88AC
:1019D00022438C882C4322430C8922434C89224386
:1019E0008C892243CC8922431A430280828B22F4C1
:1019F00000628283098A018230BD000070B50D4605
:101A00001446064906A002F0AFF84FF400702060BB
:101A10004FF440502860002070BD0000822E030863
:101A200025730D0A0000000010B5034903A002F061
:101A30009BF8002010BD0000CD2E030825730D0A71
:101A40000000000010B501F04FFF034903A002F0B1
:101A50008BF8002010BD0000752E030825730D0AB9
:101A60000000000010B5054905A002F07DF8064809
:101A7000017841F010010170002010BD962E03087E
:101A800025730D0A00000000AA01002010B50349CB
:101A900003A002F069F8002010BD0000A62E030884
:101AA00025730D0A0000000070B50E4614461D4651
:101AB0000949087840F0020008702A46214607A02C
:101AC00002F052F84FF6FF7000EA452261023046FC
:101AD00001F044FF002070BDAA010020524541449E
:101AE00020626C6B5F61646472203D20256420621B
:101AF0006C6B5F6C656E203D2025640D0A00000054
:101B000070B50E4614461D460B490CA002F02CF889
:101B10000C49087840F0010008702A4621460AA0C6
:101B200002F022F84FF6FF7000EA452261023046CB
:101B300001F070FF002070BDBF2E030825730D0A51
:101B400000000000AA010020575245544520626C55
:101B50006B5F61646472203D20256420626C6B5F62
:101B60006C656E203D2025640D0A00000CB5002236
:101B7000019200922749086840F4803008604FF4D1
:101B8000A043086800F4003000900198401C0190C8
:101B9000009810B901989842F3D10868800302D5E3
:101BA0000120009000E000920098012831D11948EE
:101BB0004030026842F0805202601748026842F4E6
:101BC000404202601348083002680260026842F432
:101BD00000420260026842F4A0520260021F0F4BF2
:101BE00013600A6842F080720A600A689201FCD5AC
:101BF0000B4A40F205711160016821F00301016098
:101C0000016841F0020101600168C1F3810102290C
:101C1000FAD10CBD00380240007000401954400752
:101C2000003C02404FF0E021042804D0086920F075
:101C3000040008617047086940F0040008617047BB
:101C400010B506F02FF9012803D0BDE8104005F0CB
:101C50005FBE10BD10B51248016841F4700101600B
:101C60001048016841F0010101600E4A002108326C
:101C7000116002680C4B1A400260031D0B4A1A6087
:101C8000026822F48022026006480C300160FFF7EF
:101C90006DFF03494FF000608039086010BD0000FF
:101CA00088ED00E000380240FFFFF6FE103000240F
:101CB000F0B587B0054601210846FFF77DF90121FF
:101CC0001020FFF7A3F9234F072209213846FEF71A
:101CD0006CFF07220A213846FEF767FF4FF4C06009
:101CE000059002208DF818008DF8190000248DF859
:101CF0001A4001268DF81B6005A93846FEF717FF2C
:101D00000195ADF80840ADF80A40ADF80C40ADF8CB
:101D100010400C20ADF80E000F4C01A9204600F039
:101D2000E1F90121204600F095F9012240F2255108
:101D3000204600F0BBF925208DF8000003208DF827
:101D400001008DF802008DF803606846FFF7F0F897
:101D500007B0F0BD000002400010014008B525208A
:101D60008DF8000000208DF801008DF802000120A0
:101D70008DF803006846FFF7DBF808BD2DE9F04158
:101D800088B0054601210846FFF716F901214804ED
:101D9000FFF72EF9DFF88C80072202214046FEF77C
:101DA00004FF072203214046FEF7FFFE0C2706979B
:101DB00002208DF81C008DF81D0000248DF81E40B7
:101DC00001268DF81F6006A94046FEF7B0FE029579
:101DD000ADF80C40ADF80E40ADF81040ADF8144031
:101DE000ADF81270104C02A9204600F07BF90121D9
:101DF000204600F02FF9012240F22551204600F044
:101E000055F926208DF8040003208DF805008DF883
:101E100006008DF8076001A8FFF78AF808B0BDE852
:101E2000F0810000000002400044004008B5262078
:101E30008DF8000000208DF801008DF802000120CF
:101E40008DF803006846FFF773F808BDF0B587B05A
:101E5000054601210220FFF7AFF801218804FFF7B2
:101E6000C7F8234F07220A213846FEF79EFE0722B5
:101E70000B213846FEF799FE4FF440600590022092
:101E80008DF818008DF8190000248DF81A400126ED
:101E90008DF81B6005A93846FEF749FE0195ADF89F
:101EA0000840ADF80A40ADF80C40ADF810400C20E9
:101EB000ADF80E000F4C01A9204600F013F90121E6
:101EC000204600F0C7F8012240F22551204600F0DC
:101ED000EDF827208DF8000003208DF801008DF823
:101EE00002008DF803606846FFF722F807B0F0BDE6
:101EF000000402400048004008B527208DF800008B
:101F000000208DF801008DF8020001208DF80300FB
:101F10006846FFF70DF808BD2DE9F04188B0064688
:101F200001210846FFF748F80121C804FFF760F8CF
:101F3000DFF88C80082200214046FEF736FE08229A
:101F400001214046FEF731FE0325069502208DF85B
:101F50001C008DF81D0000248DF81E4001278DF80F
:101F60001F7006A94046FEF7E2FD0296ADF80C4050
:101F7000ADF80E40ADF81040ADF814400C20ADF8AF
:101F80001200104C02A9204600F0ACF801212046B6
:101F900000F060F8012240F22551204600F086F85A
:101FA00034208DF804008DF805508DF806508DF81A
:101FB000077001A8FEF7BCFF08B0BDE8F081000083
:101FC00000000240004C004008B534208DF80000AD
:101FD00000208DF801008DF8020001208DF803002B
:101FE0006846FEF7A5FF08BD10B50C4908880D4AE4
:101FF00084060B4B107804D589881954401C107046
:1020000010BD0C88E406FBD50C8889880021195482
:10201000012083F8C800117010BD000000100140BD
:10202000F80100200000002038B50948044640F2BD
:10203000255100F01BF8002808D0204600F0B0F829
:10204000009001226946022005F030F838BD0000FA
:1020500000440040002904D0818941F4005181816D
:102060007047818921F400518181704770B5002447
:1020700040F66A12C1F3421301F01F05012606FA69
:1020800005F2012B0CD0022B0DD0838A1340090AD4
:102090008E40008830400BB100B10124204670BD55
:1020A00083891340F3E7038A1340F0E710B540F645
:1020B0006A13C1F3421301F01F040121A140012B57
:1020C00007D0022B07D014303AB102680A430260ED
:1020D00010BD0C30F8E71030F6E702688A43026062
:1020E00010BD00007FB504460D46208A20F4405103
:1020F000E88808432082A08941F20C618843A988BE
:102100002A8911436A8902431143A181A08A20F4DC
:102110004071A8890843A0826846FEF793FF1E48D5
:10212000844202D01D48844201D1039800E0029805
:10213000A189090408D500EBC00101EB0010296852
:102140004900B0FBF1F007E000EBC00101EB00102B
:1021500029688900B0FBF1F06422B0FBF2F10901BB
:102160000B096FF018056B4300EB8300A3891D0476
:102170004FF0320307D503EBC000B0FBF2F000F0E4
:102180000700084306E003EB0010B0FBF2F000F09C
:102190000F00084320817FBD001001400014014062
:1021A0008088C0F30800704710B5D0F8E425526865
:1021B0009047002010BD10B5044694F81201022883
:1021C00006D0032804D02046BDE8104000F023B814
:1021D000488801280CD10020C4F81801D4F8E4057F
:1021E0008268204690472046BDE8104000F043B882
:1021F00010BD10B5002413460A460021FEF798F9D9
:10220000204610BD10B5002413460A460021FEF7F3
:10221000CFF9204610BD10B5044680212046FEF7B8
:10222000ABF900212046FEF7A7F92046BDE8104093
:1022300001F07CB870B505460024052085F8110131
:1022400000231A4619462846FEF772F9284601F07F
:102250006DF8204670BD10B50024C0F83C21C0F8D0
:102260003821022380F8113113460A460021FEF777
:102270009FF9204610BD70B505460024042085F85E
:10228000110100231A4619462846FEF791F92846FF
:1022900001F04CF8204670BD70B50546002908D005
:1022A000D5F8E40542698AB395F81201032845D0B0
:1022B00046E005F58E7495F811010026022833D109
:1022C000E169A06881420FD9081AE061E878012825
:1022D00003D1D4E902100844E060A08BE16882B227
:1022E0002846FFF78FFF1FE0216AB1FBF0F200FBE9
:1022F000121262B981420AD3606A814207D2002277
:1023000011462846FFF77EFF66620DE015E0D5F81E
:10231000E405C16829B195F81201032801D12846C6
:1023200088472846FFF786FF95F81601012807D150
:10233000284600F0A7FA85F8166101E02846904784
:10234000002070BD70B50546002908D0D5F8E40519
:1023500082690AB395F8120103282CD02DE005F507
:102360005D7495F81101032827D1E169A0688142C5
:1023700013D9081AE061E878012803D1D4E90210E2
:102380000844E060E169A068814200D2084682B258
:102390002846E168FFF72DFF0FE0D5F8E405016955
:1023A00029B195F81201032801D12846884728460B
:1023B000FFF761FF01E028469047002070BD002034
:1023C00070470000CA88012A01D0FFF724BF90F8A7
:1023D0001221022A03D0032A05D0FFF71CBF0122D5
:1023E0000349FFF738BF012200F58871FFF733BFBB
:1023F000FC00002038B504460D466888010A08290B
:1024000078D2DFE801F07704152177776C72D4F881
:10241000EC15A0780A68694690470146E88840288C
:1024200003D094F81201012845D10820009042E021
:10243000D4F8E415A0788A6A6946904701460220DC
:102440004870C4F8F01536E0C0B2062842D2DFE882
:1024500000F0030B131B232BD4F8EC15A0784A686B
:1024600069469047014626E0D4F8EC15A0788A68C2
:102470006946904701461EE0D4F8EC15A078CA687A
:1024800069469047014616E0D4F8EC15A0780A6931
:102490006946904701460EE0D4F8EC15A0784A69E9
:1024A00069469047014606E0D4F8EC15A0788A69A1
:1024B000694690470146BDF80000002809D0EA8827
:1024C000002A06D0824200D9024600922046FFF739
:1024D000C2FE38BD29462046FFF79DFE38BD29467D
:1024E0002046FFF798FE38BD04E029462046FFF756
:1024F00092FEF8E729462046FFF78DFEF3E700211C
:1025000002E0491CC9B2401C0278002AF9D10846F1
:10251000704701EB810100EBC100B0F88C0380B281
:102520007047000090F81221022A03D0032A01D03C
:10253000FFF771BE06490122CA60D0F818210AB11E
:102540000322CA60024902220C31FFF784BE000058
:10255000F400002070B504460D461646002C16D037
:102560002046FFF7CCFF022101EB400030802870AD
:10257000032102206970002306E0411CC9B22A54DD
:10258000641C481CC0B26B542278002AF5D170BD7F
:102590002DE9F0410446069F884616461D46204612
:1025A00000F0B0FC2046FFF70AFFC4F8E455C4F879
:1025B000E875C4F8EC6541462046FEF705FAD4F804
:1025C000E805006880472046BDE8F04100F088BC7F
:1025D00010B5D0F8E415096A8847002010BD10B581
:1025E000D0F8E415496A8847002010BD10B5FEF701
:1025F000E7FB002010BD10B5FEF706FC002010BD63
:1026000010B5044681212046FDF736FF0121204602
:10261000FDF732FF2046FEF719FC002010BD000038
:1026200020200880004870473601002010B504467D
:102630002046FFF7E5FF0223402281212046FDF7D7
:1026400059FF0223402201212046FDF753FF204677
:10265000FEF702FC002010BD70B505460C46394E51
:10266000217811F060003CD0202868D16078FE28E5
:1026700007D0FF2825D021462846FFF7CCFD0220B1
:1026800070BD6088B8B9E088012814D1080612D559
:102690002D48006880698047C1B2317029B101229C
:1026A00028492846FFF7D7FD49E021462846FFF78D
:1026B000B2FD022070BD21462846FFF7ACFD022086
:1026C00070BD608838B9E08828B9080603D4284668
:1026D000FEF7E4FB33E021462846FFF79CFD02208D
:1026E00070BD617801290ED00A2902D00B2926D1AC
:1026F00006E014490122491C2846FFF7ACFD1EE004
:10270000A07870701BE021792846FDF7E7FE21795B
:102710002846FDF7B1FEA188080606D5C9B20223F6
:1027200040222846FDF7E6FE05E0C9B2022340221A
:102730002846FDF7DFFE21792846FEF72BFB002017
:1027400070BD000034010020CC0100207CB506469D
:102750000024304600F0DDFF002849D0304600F06C
:10276000E1FF05460190E8B3280303D53046FDF7A5
:10277000CFFF0446680303D53046FDF75FFF0443EF
:10278000A80703D502200090F1684861002D03DA04
:102790003046FEF719F80443280503D53046FEF706
:1027A00087F80443280703D53046FEF773F804433F
:1027B000E80603D53046FEF729F80443E80403D5BC
:1027C0003046FEF7AFF80443A80403D53046FDF7C2
:1027D00009FF0443E80203D53046FEF739F9044304
:1027E000A80200E006E003D53046FEF741F90443B5
:1027F00020467CBD00207CBD90F8CC250A7090F866
:10280000CD254A7090F8CE2590F8CF3502EB032203
:102810004A8090F8D02590F8D13502EB03228A80C7
:1028200090F8D22590F8D33502EB032292B2CA80F9
:10283000C0F84021012180F81111704710B50446FD
:102840000023402219462046FDF754FE0023402273
:1028500080212046FDF74EFE012084F81201D4F8B5
:10286000E815A07849688847002010BD10B50446D7
:10287000D4F8E80500698047032084F8120100209D
:1028800010BD0000024909680069416000207047DE
:10289000F000002010B5D0F8E415C969002900D077
:1028A0008847002010BD70B504468888002801D1F3
:1028B000C88820B12046BDE87040FFF7ACBC8878DE
:1028C00000F07F0594F8120103280DD084F814510C
:1028D00029462046FDF748FE2046FFF7CCFC45B1CF
:1028E000022084F8120170BD2046BDE87040FFF759
:1028F00092BC012084F8120170BD10B50446D4F8D2
:10290000E405026820469047D4F8E80580688047CF
:10291000002010BD70B504460846284D8178297006
:10292000012905D901462046BDE87040FFF773BC78
:1029300094F81221022A07D0032A18D00146204613
:10294000BDE87040FFF767BC61B184F81011032047
:1029500084F812012046FFF7D0FF2046BDE8704002
:10296000FFF789BC2046BDE87040FFF784BC91B1F9
:1029700094F8100188421BD001462046FFF714FC52
:10298000297884F810112046FFF7B7FF2046BDE8EC
:102990007040FFF770BC022084F8120184F8101117
:1029A0002046FFF701FC2046BDE87040FFF763BCFE
:1029B0002046BDE87040FFF75EBC0000F400002038
:1029C00038B5044648880122012810D002283CD19D
:1029D000888810F0FF0F38D1216949680091000AFA
:1029E000062828D2DFE800F0270F14191E23C4F8A8
:1029F0001821D4F8E4058268204690472046BDE8B7
:102A00003840FFF738BC21F070001030009012E021
:102A100021F07000203000900DE021F07000303087
:102A2000009008E021F070004030009003E021F0B9
:102A300070005030009005480099016084F816211C
:102A40002046BDE83840FFF716BC38BDF000002036
:102A50001CB5044669462046FFF7CEFE9DF80020CF
:102A600012F01F010AD001290DD0022910D002F066
:102A700080012046FDF780FD00201CBD69462046F0
:102A800000F00BF8F8E76946204600F0BBF8F3E7E2
:102A90006946204600F026F8EEE710B500244A7893
:102AA0000A2A1BD2DFE802F011171A141A08051AB5
:102AB0000E0BFFF79FFC13E0FFF7F5FE10E0FFF7AA
:102AC00029FF0DE0FFF77EFC0AE0FFF72BFD07E092
:102AD000FFF776FF04E0FFF76EFB01E0FFF79BFBDB
:102AE000204610BD70B504460D4600262979687849
:102AF00000284BD0012825D0032851D194F8120189
:102B0000022806D003280BD029462046FFF783FB76
:102B100046E009B3802943D02046FDF72DFD3FE074
:102B2000688828B921B1802902D02046FDF724FD0C
:102B3000D4F8E40529468268204690472046FFF7EE
:102B40009AFB2DE094F81201022806D003280BD03E
:102B500029462046FFF75FFB22E009B380291FD0FA
:102B60002046FDF709FD1BE06888C8B951B18029EE
:102B700008D02046FDF796FCD4F8E4052946826883
:102B8000204690472046FFF776FB09E094F81201B3
:102B9000022807D003280DD029462046FFF73BFB2B
:102BA000304670BD0029FBD08029F9D02046FDF7C2
:102BB000E3FCF5E7124A08064FF000054FF0010369
:102BC0000CD501F07F0000EB800004EBC00090F812
:102BD0001E0108B153600BE0556009E001EB810074
:102BE00004EBC00090F8760308B1536000E0556034
:102BF00003490222091D2046FFF72DFBD0E7000004
:102C0000F400002070B504460D46002694F8120129
:102C1000032805D029462046FFF7FDFA304670BD4F
:102C2000287901280CD8D4F8E40529468268204682
:102C30009047E8880028F1D12046FFF71CFBEDE71C
:102C400029462046FFF7E7FAE8E710B500F5897056
:102C50000178417004210170D0F8D604C068804723
:102C6000002010BD10B5002806D00A46054906A070
:102C7000FFF770FC034810BD0A46024902A0FFF7A7
:102C800069FCF7E78C2001204D534320436F6E66AB
:102C90006967000001A000F067BF00004D534320AA
:102CA000496E7465726661636520737461727465E0
:102CB000642E0D0A0000000002490120087002A0E5
:102CC00000F052BFD0010020555342204465766980
:102CD000636520436F6E6E65637465642E0D0A0034
:102CE0001220088000487047980100200249002007
:102CF000087002A000F038BFD001002055534220D8
:102D000044657669636520446973636F6E6E6563BD
:102D10007465642E0D0A0000002804D0012805D037
:102D200004A000F021BF0CA000F01EBF13A000F013
:102D30001BBF000055534220446576696365204CF3
:102D40006962726172792076312E312E3020205BDB
:102D50003F3F5D0D0A0000005553422044657669EF
:102D60006365204C6962726172792076312E312E52
:102D70003020205B48535D0D0A000000555342206F
:102D8000446576696365204C696272617279207668
:102D9000312E312E3020205B46535D0D0A0000009D
:102DA00001A000F0E1BE0000446576696365205231
:102DB0006573756D65640D0A0000000001A000F0E8
:102DC000D3BE000044657669636520496E20737543
:102DD0007370656E64206D6F64652E0D0A000000CF
:102DE0007047000010B5002806D00A46054906A025
:102DF000FFF7B0FB034810BD0A46024902A0FFF7E7
:102E0000A9FBF7E78C2001204D534320496E7465E0
:102E10007266616365000000042008800048704706
:102E20009401002010B50A46024903A0FFF792FB67
:102E3000004810BD8C200120414C49454E54454B63
:102E40000000000010B5002806D00A46054906A07B
:102E5000FFF780FB034810BD0A46024909A0FFF7AF
:102E600079FBF7E78C200120414C49454E54454BF6
:102E7000205553422043617264205265616465723B
:102E8000000000004D6173732053746F72616765B9
:102E900020696E204853204D6F64650010B50028EE
:102EA00006D00A46054906A0FFF754FB034810BDAB
:102EB0000A46024906A0FFF74DFBF7E78C200120E8
:102EC00030303030303030303030314200000000AF
:102ED00030303030303030303030314100000000A0
:102EE00008B543208DF8000000208DF80100032074
:102EF0008DF8020001208DF803006846FEF718F8EF
:102F000008BD00007CB501210846FEF755F80121F7
:102F10008020FEF75FF84FF4C050009002208DF83B
:102F2000040000248DF8064003208DF805008DF87C
:102F300007400F4E69463046FDF7F9FD4FF400415A
:102F4000009101258DF804508DF807406946304600
:102F5000FDF7EDFD07490D600A220B213046FDF714
:102F600024FE0A220C213046FDF71FFE7CBD000026
:102F700000000240BC02404201F060BB01F07ABB9D
:102F80003EB5044600250020029001900090217A71
:102F9000E068012919D0C16841F040010291C16087
:102FA000204600F0E3F84FF434100190607A10B13D
:102FB0004FF474100190E168019888631420FFF7C2
:102FC000DBFFE078012822D02AE0816B21F48031F8
:102FD0000191627A12B141F48011019101998163EA
:102FE000E068C16821F0400121F4800121F4003142
:102FF00021F400210291C160204600F0B7F8E0788A
:103000000128DED12A200090E1688860D9E7E068D5
:10301000816821F01E010A3141F020010091816098
:1030200028463EBD2DE9F04188B004460027002522
:103030000795059504950395D4F80C010560206962
:10304000016821F4C05106910160E07A4026012810
:103050002BD10321204600F056FBE068802141621D
:10306000ADF81660ADF81410E2680598906200EBB8
:103070001040ADF81000ADF81210E1680498C1F8E6
:10308000040100EB1040ADF81000ADF81250E168FB
:103090000498C1F8080100EB1040ADF81000ADF83D
:1030A0001250E1680498C1F80C011021204600F08C
:1030B000EDFA204600F0CCFA2069056120694561EF
:1030C00021694FF0FF3088612069C56100204FF011
:1030D000904C4FF0FF0812E004EB80018A691368FE
:1030E0000793002B02DACDF81CC000E00795079B80
:1030F00013608A6915618969C1F80880401C61788C
:103100008142E9D8002012E004EB80014A6D136887
:103110000193002B02DACDF804C000E00195019B79
:1031200013604A6D1561496DC1F80880401C6178D3
:103130008142E9D84FF4807003902069016941F41D
:1031400080710161E078012809D1032066F38A00CB
:1031500040F4803066F359400290216908632046AC
:1031600000F044FA08B03846BDE8F081F8B50546ED
:103170000027002400200090124E0320FFF7FEFEDF
:10318000E86800690090641CB44201D90020F8BDD1
:1031900000980028F1DA0021009840F0010000902A
:1031A0000098EA681061E86802690092491CB1421F
:1031B00002D8009AD207F7D10320FFF7DFFE384686
:1031C000F8BD0000400D03000022C068816821F0B6
:1031D00001018160104670471EB500240021009156
:1031E00001698968029183691A680192C1F34101FA
:1031F000002905D0012903D0022905D0032907D1D0
:10320000D10AC902019103E0D10AC902C91C019186
:10321000019919600069416841F48071416020465C
:103220001EBD7EB500260022029200924B784A69AC
:10323000012B1CD00B7800EB83035D6D2C6802948E
:103240002D690095002A53D08A684A61009D62F377
:1032500006050095009A22F4C01202F500220092A1
:103260005B6D009A1A61C278012A4DD052E08369E1
:103270001D6802951C69009442B18C68A24210D965
:103280004C61009A64F3060200920EE0009A22F06C
:103290007F020092009A22F4C01202F500220092EE
:1032A00009E0009C62F306040094009A22F4C01224
:1032B00002F500220092009A1A61C278012A05D113
:1032C0000C780A6900EB8404A469626145F08062AD
:1032D00042F0004202921A60C2782ABB4A691AB3CD
:1032E0000A78012191400069426B0A4342631BE066
:1032F0000D7A009A65F306020092009A22F4C01239
:1033000002F500220092ABE70B780A6900EB830319
:103310005B6D5A6144F0806242F00042029209788B
:1033200000EB8100406D026030467EBD0EB54FF06F
:10333000404101910A490191094918310191426DB9
:1033400001991161C178012909D1426D00F2CC5176
:103350005161416D08684FF08020009008600EBDFB
:10336000000008C07CB500250022019200920C7874
:103370004E780123A34000EB8402012E1CD0526D35
:10338000ADF80230136801931C040ED40C8964F369
:103390000A03CC7864F39343897961F3995343F03A
:1033A000805141F40041019111600069C169009AA6
:1033B0001143C16128467CBD9269ADF80030E1E758
:1033C00018B503460020002200924C780A78012CA0
:1033D00003EB82020AD0526D136823F400130093AA
:1033E000C978032904D0022902D004E09269F3E7E6
:1033F00043F0805100910099116018BD3CB5002444
:10340000019400940B784D7801229A4000EB8301DF
:10341000012D0AD0496DADF802200C600069C16928
:10342000009A9143C16120463CBD8969ADF80020F6
:10343000F3E708B502460020002300934B78097893
:10344000012B02EB810106D0496D0A6842F400129B
:1034500000920A6008BD8A6911680091002902DAA9
:1034600041F080410091009941F4001100911160F8
:1034700008BDFEB500250022029201924C780B781F
:103480004A694FF0010C00EB8303012C19D05B6DEE
:103490001E6802961C690194002A72D08F683A4413
:1034A000521EB2FBF7F262F3DC44C4F3C9427A4322
:1034B00062F312040194019A1A61C278012A67D05A
:1034C0006CE09B691E6802961C6901946AB162F304
:1034D00012048F683A44521EB2FBF7F262F3DC44E6
:1034E0000194CA78012A06D00AE0E20CD2046CF3F7
:1034F000DC42019204E024F0C04202F10052019249
:10350000019A1A61C278012A10D0CA78012A09D01A
:103510004A693AB10A780CFA02FC0269536B43EA31
:103520000C035363CA78012A07D00FE00B780A69AD
:1035300000EB83039B695A61F4E702699268009289
:10354000120AD20711D046F080520292029A42F03B
:10355000806242F0004202920B7800EB83039B6989
:103560001A60CA78012A04D02FE046F00052029275
:10357000ECE78A8A93B20A78C96800F078F924E007
:10358000FFE78A6862F312046CF3DC44019492E76B
:103590000B780A6900EB83035B6D5A61CA78012AD4
:1035A00008D14A791AB146F00052029202E046F080
:1035B00080520292029A42F0806242F000420292ED
:1035C000097800EB8100406D02602846FEBD0000D6
:1035D000C2684FF0FF315160C2686FF080415161A5
:1035E0000149C068816170470008008038B5044611
:1035F000002500200090E1688861E1686FF080405C
:1036000048612046FFF7E4FFE07808B910200090F9
:10361000009840F4006040F4805040F4005040F4C2
:10362000802040F4002040F0080040F4801040F476
:103630000010E1688A69824302438A61284638BDE6
:103640000022C068816841F0010181601046704726
:1036500038B50025002100220092009A42F01002A5
:103660000092009AC3681A61074BC26814690094FB
:10367000491C994202D8009CE006F7D40320FFF7CA
:103680007DFC284638BD0000400D030038B50025FC
:10369000002200230093009B43F020030093009B33
:1036A00061F38A1300930099C3681961074BC168DD
:1036B0000C690094521C9A4202D8009CA006F7D4D0
:1036C0000320FFF75BFC284638BD0000400D0300D7
:1036D00008B501460020096989680091C1F34101DC
:1036E000002907D0012903D0022905D0032900D1E0
:1036F000022008BD032008BD012008BDC068406944
:1037000000F0010070470069026861F30102026085
:10371000704700B5FFF7F2FF012801D0012000BD7E
:10372000002000BDC0684169806908407047006999
:103730008169C069084080B2704700698169C069C9
:103740000840000C704700EB8101496D89680069F1
:1037500040690840704710B5044608460021D21C55
:103760009308D4F8D02003E0146840F8044B491CB7
:103770009942F9D310BD000070B500220025002445
:10378000C4700123837040268680012901D061B175
:1037900014E04FF0A042C37208210170042141706F
:1037A0009115C1800221017208E0224AC4720C21E5
:1037B0000170062141704FF4A061C180C26002F522
:1037C0000061016100210AE002EB411300EB81047A
:1037D00003F51066A66103F530636365491C437801
:1037E0008B42F1D802F5806141614031C0F8CC10C4
:1037F000002108E002EB411300EB810403F5A06314
:10380000C4F89030491C03788B42F3D8002108E0BB
:1038100002EB013300EB810403F58053C4F8D03090
:10382000491C03788B42F3D802F56062C0F80C2182
:10383000284670BD0000044038B50024C368D8682D
:1038400020F0005020F080420092012901D021B1E7
:1038500006E042F00050009002E042F0804000900C
:103860000098D8603220FFF787FB204638BD30B57E
:1038700005460020EC78002C0CD1DB1C9B0805EBE6
:103880008202D2F8D02003E051F8045B1560641C7A
:103890009C42F9D330BDFEE770B5044621460FA027
:1038A00000F062F9240300F007F900F0ADF80D4DC7
:1038B000002028602020FEF745F8C4F30740FEF7FB
:1038C00041F8C4F30720FEF73DF8E0B2FEF73AF8FE
:1038D00001202860BDE8704000F096B866653A2582
:1038E000780D0A00B88240427CB501210220FDF724
:1038F00063FB01214020FDF75FFB4FF48040009007
:1039000001248DF8044000208DF8060003208DF876
:1039100005008DF8074069460C48FDF708F980203E
:1039200000900B4D69462846FDF701F98021284695
:10393000FDF74BF907480460FDF7A2FF0020FEF7F2
:103940001BF800F033F8044908807CBD00040240F5
:1039500000180240B8824042F00100202DE9F041F9
:1039600005460C461646104F0020C7F8B802032043
:10397000FDF7E8FFC4F30740FDF7E4FFC4F30720B9
:10398000FDF7E0FFE0B2FDF7DDFF002405E0FF20DA
:10399000FDF7D8FF2855641CA4B2B442F7D3012028
:1039A000C7F8B802BDE8F0810080404270B50D4D07
:1039B00000242C609020FDF7C5FF0020FDF7C2FF1A
:1039C0000020FDF7BFFF0020FDF7BCFFFF20FDF743
:1039D000B9FF44EA0024FF20FDF7B4FF2043012192
:1039E000296070BDB882404210B5064C00202060AE
:1039F0000520FDF7A7FFFF20FDF7A4FF01212160AF
:103A000010BD0000B882404210B5FFF7EDFFC007BF
:103A1000FBD110BD2DE9F05F80468A461546DFF8E0
:103A200094904FEA1A37CAF30B06C6F58054A542A4
:103A300033D82C4631E0311819F80110FF2903D191
:103A4000401C80B2A042F6D3A04214D23846FFF701
:103A500023FF002006E0821918F8001009F8021070
:103A6000401C80B2A042F6D359464FF480524846DB
:103A700000F02EF804E022465146404600F028F8B7
:103A8000A54214D07F1C0026A044A244281B85B266
:103A90004FF48054A54200D82C464FEA073B4FF420
:103AA000805259464846FFF759FF0020CAE7BDE853
:103AB000F09F00001C51012010B5044C0020206034
:103AC0000620FDF73FFF0120206010BDB882404274
:103AD0002DE9F04107460E461546F0B2C0F5807458
:103AE000A54200D82C464FF4807807E027442644AE
:103AF000281B85B24446A54200D82C4622463146B2
:103B0000384600F005F8A542F0D1BDE8F08100008C
:103B10002DE9F04105460C461646FFF7CDFF114F43
:103B20000020C7F8B8020220FDF70CFFC4F30740DD
:103B3000FDF708FFC4F30720FDF704FFE0B2FDF72F
:103B400001FF002404E0285DFDF7FCFE641CA4B224
:103B5000B442F8D30120C7F8B802BDE8F041FFF73E
:103B600053BF0000008040420FB4054B10B503A9BD
:103B7000044A029800F018F810BC5DF814FB00002D
:103B8000DD5D0008F401002002E008C8121F08C132
:103B9000002AFAD170477047002001E001C1121FCE
:103BA000002AFBD1704700002DE9FF4F8DB00F4672
:103BB0000546002606E025280BD0DDE90F129047C8
:103BC0006D1C761C28780028F5D111B03046BDE870
:103BD000F08F0024A246A1460122EC4900E00443F4
:103BE00015F8013F203B02FA03F00842F7D128788C
:103BF0002A2810D06FF02F022878A0F1300109296F
:103C000014D80AEB8A0102EB410144F0020400EBF4
:103C1000010A6D1CF0E701CF5FEA000A03D544F406
:103C20000054CAF1000A44F002046D1C28782E28C2
:103C300017D115F8010F44F004042A280ED06FF0B4
:103C40002F022878A0F1300109290AD809EB89014F
:103C500002EB410100EB01096D1CF2E757F8049BF0
:103C60006D1C28786C280FD006DC4C2817D06828EB
:103C70000DD06A2814D104E0742810D07A280FD10E
:103C80000DE044F400140AE044F4801401E044F42C
:103C900040146978814202D104F580146D1C6D1CBA
:103CA0002A786E2A1FD00CDC632A31D004DC002A6B
:103CB0008BD0582A11D1A3E0642A68D0692A0CD18C
:103CC00065E0732A2ED004DC6F2A73D0702A04D1E9
:103CD0009BE0752A6FD0782A6ED01046DDE90F126E
:103CE0009047761C50E1C4F30250022806D0032806
:103CF00009D0042801CF09D0066045E101CFF117B2
:103D0000C0E9006140E101CF06803DE106703BE182
:103D100017F8040B8DF8000000208DF80100EB4629
:103D2000012003E057F804BB4FF0FF3061074FF06C
:103D3000000102D40DE008F10101884649450FDA7F
:103D40008045F8DB1BF808100029F4D108E008F1E1
:103D5000010188468142FADB1BF808100029F6D1E0
:103D6000DDE90F23AAEB08008146214600F036F971
:103D7000304400EB080604E0DDE90F121BF8010BEC
:103D80009047B8F10108F7D221464846F7E00A21EA
:103D9000C4F302534FF0000B0891022B04D001CF63
:103DA000C117032B09D00AE0FF1D27F00707F7E82A
:103DB000020108E032E01FE020E000B2C117042B4E
:103DC00001D140B2C117031E71F1000307DA4FF0B1
:103DD000000CD0EB0C006CEB01012D2302E023055D
:103DE00004D52B238DF82430012303E0E30701D011
:103DF0002023F7E7984658E00A2110E010210EE052
:103E000010204FF0000B08900CE010214FF0000B39
:103E100044F004044FF00809089103E008214FF032
:103E2000000B0891C4F30253022B04D001CF0021F0
:103E3000032B06D006E0FF1D27F00707F7E8020175
:103E400003E080B2042B00D1C0B24FF0000823077A
:103E50002BD5702A07D0DDF820C08CF0100C5CEA5E
:103E60000B0C05D00EE040238DF82430012308E030
:103E700050EA010306D030238DF824308DF8252038
:103E800002239846DDF820C08CF0080C5CEA0B0C8D
:103E90000BD150EA010301D1630706D530238DF819
:103EA00024304FF00108A9F10109582A04D038A2A2
:103EB0000B9208AA0A920BE03AA2F9E75B46089A2D
:103EC000FCF7DAF90B9B9B5C0A9A521E0A9213705C
:103ED00050EA0102F2D10A98ADEB000000F1200B8C
:103EE000600702D524F4803401E04FF00109D94580
:103EF00002DDA9EB0B0000E0002000EB0B014144C8
:103F00000890AAEB010AE00306D4DDE90F2321465D
:103F1000504600F063F806444FF0000908E009A994
:103F200011F80900DDE90F12904709F10109761C2B
:103F3000C145F4DBE0030CD5DDE90F2321465046F3
:103F400000F04CF8064404E0DDE90F123020904701
:103F5000761C0899481E08900029F5DC08E00A98AC
:103F60000A990078491C0A91DDE90F129047761CE6
:103F7000BBF10001ABF1010BF1DC21465046DDE95C
:103F80000F2300F019F806446D1C1BE609280100F8
:103F900030313233343536373839616263646566BF
:103FA0000000000030313233343536373839414281
:103FB00043444546000000002DE9F0410446002539
:103FC0001E461746880404D405E039462020B04731
:103FD0006D1C641EF9D52846BDE8F0812DE9F0413D
:103FE000044600251E469046C80301D5302700E050
:103FF0002027880404D505E041463846B0476D1CAB
:10400000641EF9D52846BDE8F081000070B504466D
:104010000020E070401E6063204602F0EFF908B116
:10402000042070BD04F2362001F0E5FF054694F847
:1040300038004AF65526EB2803D0E92801D0E828B5
:1040400030D1B54206D1082219A104F18A0002F04C
:1040500079F8C8B104F1430001F0CDFF411E0842D8
:1040600020D1B0F5007F1DD3B0F5805F1AD894F849
:104070004500B8B1411E084214D194F84800012807
:1040800004D0022802D00DE0002070BD04F14900E8
:1040900001F0B1FF30B104F14E0001F0ACFF08B106
:1040A000002070BDB54201D1022070BD032070BD5B
:1040B00046415433322020200000000000E0401C24
:1040C00002780AB18A42FAD100787047891EC26923
:1040D000921E8A4201D800207047026B408900FB83
:1040E000012070472DE9F0478146884608F11A0003
:1040F00001F081FF10B10020BDE8F08798F80000C2
:1041000000F03F00401E00EB800101EBC0040127DE
:104110000025DFF860A01AF80500404401F06BFFAD
:1041200006468FB1FF2C0BD8304601F09BFD0746A9
:104130002046641C39F8100001F094FD874201D03C
:104140000020D9E7374605E0A6F57F40FF3801D0CB
:104150000020D1E76D1C0D2DDDD398F8000040063E
:1041600005D527B139F8140008B10020C4E70120B3
:10417000C2E70000388200082DE9F04180460F4672
:10418000D8F80050002F08D03946404601F07CFE98
:10419000022809D20120BDE8F0816E6916B1E869F4
:1041A000B04207D8012605E0411CF4D0E9698142FC
:1041B000F1D83E46A869D0B10024BE4215D1741C86
:1041C000E869A04200D802242146404601F05CFE86
:1041D0000128E0D0411CDED038B16869022803D341
:1041E000E969814200D90646002414B118E0002094
:1041F000D1E73446641CE869A04204D80224022EA8
:1042000001D20020C7E72146404601F03DFE38B10B
:104210000128C0D0411CBED0B442EBD10020BAE787
:104220004FF0FF3632462146284602F0E2FC28B91C
:1042300027B122463946284602F0DBFC20B101288E
:104240000FD001242046A6E76C61D5E90601891E3E
:10425000884201D8401EA861287940F001002871E9
:10426000F0E73446EEE700002DE9F34F81B00E464B
:104270003068009001980068D0F810A000246846CB
:1042800002F0E4FE411C18D0B0F5803F04D3020CCC
:104290002146641C2AF8112085B2202D0FD32F2D22
:1042A0000DD05C2D0BD0802D0DD2294672A0FFF7CA
:1042B00005FF40B10620BDE8FE8F0620FBE7202D5C
:1042C0000AD2042512E0FF2C01D30620F3E7204692
:1042D000641C2AF81050D2E7002501E0491C009127
:1042E000009908782F28F9D05C28F7D00098306022
:1042F00007E0601E3AF81000202801D02E2802D1D5
:10430000641E002CF5D100202AF814000CB10027FF
:1043100002E00620CFE77F1C3AF817002028FAD0E9
:104320001FB9BAF800002E2803D145F0030500E0BC
:10433000641E24B1601E3AF810002E28F8D10198AE
:104340000B222021203001F012FF4FF00008C1465F
:104350004FF0080B38467F1C3AF8106006B3202E49
:1043600003D02E2E04D1A74202D045F00305F1E779
:10437000D84501D2A74219D1BBF10B0F0ED0A742ED
:1043800001D045F003050BD827464FF008084FF041
:104390000B0B4FEA89604FEA1069DBE745F0030534
:1043A000019890F82000E5283FD042E0802E09D304
:1043B00045F00205304601F055FC4FF46A7101F0FA
:1043C00025FC0646FF2E10D9ABF10100804503D332
:1043D00045F00305D846BDE7019940460844320A36
:1043E00008F1010880F8202017E026B1314625A009
:1043F000FFF764FE18B15F2645F003050DE0A6F156
:104400004100192801D849F00209A6F161001928D4
:1044100003D849F00109203EB6B20199404608444C
:1044200008F1010880F8206094E70198052180F8E0
:104430002010BBF1080F03D14FEA89604FEA1069E1
:10444000C9F38100032803D06FEA0900800701D176
:1044500045F00205A80709D45FEAC97001D045F00C
:1044600010055FEA497001D545F00805019880F80C
:104470002B5000201FE70000222A3A3C3E3F7C7F61
:10448000000000002B2C3B3D5B5D00002DE9FF4F41
:1044900081B09B466A460121019800F05FFB18B18C
:1044A000012005B0BDE8F08FDDF800904FF03F0827
:1044B0000826F10101E07006060E2EB106FB08F099
:1044C000B9FBF0F08842F6D806B9FF264FF48052C7
:1044D0000021584601F04BFE0BF5DF744FF0000A47
:1044E000454657E0029850F82A70642F08D801D149
:1044F0004F4605E04FF06400B9FBF0F007FB00F712
:1045000005EB0700484501D8A84201D2A9EB0507F1
:10451000F7B3294604F1080002F016FD394604F10C
:104520000C0002F011FD0398207108FB06F0024612
:10453000B5FBF0F0B5FBF8F1B1FBF6F306FB131198
:10454000B5FBF8F308FB13535B1C6170C02101EA53
:10455000900C4CEA030C84F802C0E0703D442B46FA
:104560006D1EB5FBF2F0B5FBF8F2B2FBF6F706FBF9
:104570001727B5FBF8F208FB1252521C677101EACB
:1045800090011143A171E07110340AF1010A00E0B9
:1045900006E01D46BAF1040F02D20DB14D45A1D37C
:1045A0004AF655210BF5FF7002F0D6FC01230022DC
:1045B0005946019800F01EFB08B1012071E7002068
:1045C0006FE7812803D3FE2801D80120704700201F
:1045D0007047402808D37E2801D8012070478038D2
:1045E0007E2801D8012070470020704710B54FF495
:1045F000E131012002F086FD012003F09FF901491D
:10460000086010BDB800002010B504460420FDF776
:1046100009FB094804704FF47A714C430121418031
:104620004FF0E021086940F0020008614C61086920
:1046300040F00100086110BD1400002070B5044670
:1046400003F030FC01280CD0094D6888844203D364
:10465000B4FBF0F002F0A4FF6888B4FBF0F100FBBB
:1046600011444FF47A706043BDE8704000F002B826
:104670001400002070B500214FF0E0256C690A4A53
:1046800012785043AB69AA699A42FCD003D2A3EBDB
:104690000203194403E0A4EB020633441944134611
:1046A0008142F0D370BD0000140000202DE9F041DC
:1046B00005460E462F680021284600F0AEF988B95D
:1046C00000243846A96901F099FE58B9E9690A78C9
:1046D000E52A0CD05AB100240121284600F0A3F8A5
:1046E0000028EED0042800D10720BDE8F081641C2A
:1046F000B442F7D0F0E72DE9F04105460C462846D4
:1047000002F080FC10B10120BDE8F081214628466E
:10471000FFF7DCFC06466E6305F138004FF480526B
:104720000021804601F023FD0127002400E03C44E5
:104730006889A04207D9321968783B46414600F0A3
:1047400059FA0028F3D06889A04201D00120DBE7A4
:104750000020D9E72DE9F0470446D4F800A0002155
:10476000204600F05AF900285BD1FF26B0464FF0F2
:10477000FF39C4F82C905046A16901F03FFE07466E
:1047800038004DD1E06905786DB1C17A01F03F0183
:10479000A171E52D03D00A0707D50F2905D0FF2603
:1047A000C4F82C9035E004273AE00F2901D0F6B187
:1047B00021E094F82B1049062BD4690606D590F811
:1047C0000D8005F0BF052E462169E162B5420BD18F
:1047D000417B414508D1DAF8102001461046FFF729
:1047E00081FC08B1761E00E0FF26F6B211E002F06F
:1047F000B7FB404514D094F82B00C00706D10B221C
:1048000004F12001E06901F09DFC48B1FF26C4F8E5
:104810002C900021204600F006F807463800AAD068
:104820003846BDE8F0872DE9F047044689462668FA
:10483000276920374FF00008B7F5001F01D3C4F8EF
:104840001880A06930B1B189B7FBF1F201FB127198
:1048500019B148E00420BDE8F087401CA0616169FF
:1048600071B1B0897289B7FBF0F0521E10423AD193
:10487000204601F009FB0546012D09D80220EAE790
:104880003089B0EB571F2ED8C4F818800420E2E717
:10489000681C16D0F069A8421FD8B9F1000F12D0D9
:1048A00020466169FFF768FC054685B1012D10D0EF
:1048B000681C10D029463046FFF71DFF68B1012063
:1048C000C9E70120C7E7C4F818800420C3E7072020
:1048D000C1E70220BFE70120BDE7656129463046F8
:1048E000FFF7F4FBA0612761B089B7FBF0F100FB93
:1048F000117030443830E0610020ACE72DE9FE4F04
:104900000446266894F82B0010F0A00F02D0062071
:10491000BDE8FE8F0027306900E07F1C30F81710DB
:104920000029FAD104F120010C228846684601F0E2
:1049300015FC9DF80B00C00718D0402084F82B0010
:1049400001252B4669464046326901F04FFA204660
:10495000FFF700FF10B96D1C642DF2D3642D0FD04A
:104960000428D5D19DF80B0084F82B009DF80B008E
:10497000800707D50C370D20B7FBF0F77F1C02E04E
:104980000720C5E7012739462046FFF78FFE054679
:104990004FF001092DBB7F1E23D02069794200EB27
:1049A0004111204600F039F80546280019D140464B
:1049B00002F0D6FA82463046A16901F01FFD054695
:1049C0007DB9FAB2E1695346306902F0ABF986F875
:1049D000039000212046FFF726FF05460DB97F1EF4
:1049E000E9D1C5B93046A16901F008FD05462800A6
:1049F00011D120220021E06901F0B9FB0B224146D0
:104A0000E06901F0ABFB94F82B00E16900F01800BD
:104A1000087386F8039028467AE72DE9F0410746A7
:104A20000E463D68B6F5001F01D2F00602D0022006
:104A3000BDE8F0813E61BC681CB92878032800D32A
:104A4000EC6A2CB1B5F80A80A88908FB00F81AE0D6
:104A50002889B0EB561F01D80220E9E7E86AB8615F
:104A600018E02146384601F00FFA0446601C06D0D3
:104A7000022C02D3E869A04203D80220D8E7012023
:104A8000D6E7A6EB08064645EBD221462846FFF7B7
:104A90001DFBB8617C61B86970B1A989B6FBF1F101
:104AA0000844B861A889B6FBF0F100FB1160284406
:104AB0003830F8610020BBE70220B9E710B50028C4
:104AC00005D0012805D0022826D0012010BD0020E5
:104AD00010BDFEF709FF11494FF440500880104CFB
:104AE00000235A1E1946206802F056FF5C210DA0D3
:104AF000FBF717FC411C3C230F4A10A0FFF734F8CA
:104B0000294612A0FFF730F800231A4619462068FC
:104B100003F04CF8002010BD002010BDBE000020A6
:104B2000B80000202E2E5C66617466735C64697345
:104B30006B696F2E630000002A2E03080D0A25738F
:104B40002025732025643A09000000007265737502
:104B50006C74203D2025640D0A000000002803D05D
:104B6000012803D0012070470020704749B1012976
:104B700012D0022907D003290AD0042088B10120CD
:104B800070470020FAE74FF4007010800020F5E72E
:104B9000082010800020F1E7034800881060002002
:104BA000ECE7002070470000BE0000202DE9F04136
:104BB0000E4615461C46002806D0012806D00228BD
:104BC00014D00420BDE8F0810020FBE764B14FF46D
:104BD000007769023A463046FEF7C0FE6D1C06F5C6
:104BE0000076641E002CF4D10020EBE70020E9E7FA
:104BF000002070472DE9F0410E4615461C4600285E
:104C000006D0012806D0022814D00420BDE8F08187
:104C10000020FBE764B14FF4007769023A46304662
:104C2000FEF7F8FE6D1C06F50076641E002CF4D12C
:104C30000020EBE70020E9E738B50446204600F005
:104C400080FD002807D16946204602F0D5FD0028E6
:104C500001D10021216038BD2DE9F84F04460D46F1
:104C60006946204602F0C8FD0746380000D1677C3F
:104C700017B13846BDE8F88FE068A84203D2217C1E
:104C8000890700D4054660694FF00008C4F8148015
:104C90004FF00109002D63D000994E8989894E4358
:104CA0004FF0020A68B1691E401EB1FBF6F1B0FB7D
:104CB000F6F2914205D3711E884360612D1AA169F5
:104CC0000CE0A16849B900212046FFF755FA0146DA
:104CD000012905D0481C07D0A160A16159BB3FE064
:104CE00084F811A00220C5E784F811900120C1E7E3
:104CF000AD1B606930446061207C800706D520468A
:104D0000FFF73AFA014629B9002516E0204601F0DE
:104D1000BBF80146481C09D0012903D90098C06995
:104D2000884207D884F811A00220A3E784F81190E4
:104D300001209FE7A161B542DAD86069284460612B
:104D400000988289B5FBF2F302FB135242B1FFF7E0
:104D5000BDF948B300998989B5FBF1F101EB000871
:104D6000E1686069884204D9E060217C41F040013B
:104D70002174009A9189B0FBF1F301FB130048B351
:104D8000E069404526D0217C04F12806090613D5A8
:104D900055780246012331462846FFF72BFF38B1EC
:104DA00084F81190012065E784F811A0022061E7E2
:104DB000207C00F07F002074009801234246407858
:104DC0003146FFF7F3FE18B184F81190012051E746
:104DD000C4F81C8038464DE72DE9FF4F8DB00C46D6
:104DE000154698460DA801F0C8F8002803DA0B20F4
:104DF00011B0BDE8F08FFB49002651F8201001B139
:104E00000E70C0B20B9004B9F74C0B98FFF756FE2A
:104E1000C10701D00320EBE7400701D50A20E7E7EF
:104E2000606809904FF0010938B909AA03210B986D
:104E3000FFF794FE08B1CDF8249009984FF400478D
:104E400020B1B84202D8411E084201D0CDF82490CA
:104E50000AAA02210B98FFF781FE08B10120C7E7DB
:104E6000BDF82800A0F50071B1F5606F02D8411EB1
:104E7000084201D00120BBE7217801F00F010C911D
:104E800061784A1E012A00D901210291A1684A1EB7
:104E9000BA4205D24209B1FBF2F302FB13120AB186
:104EA0004FF400710191E168B1F1807F02D84A1E90
:104EB000114200D00021B1FBF0F7B8FBF0FBBBF1D1
:104EC000000F0BD065B100200790069007AA0121C2
:104ED0000B98FFF743FE28B1012089E7112087E7EF
:104EE000112085E70C98000706D407983F2803D9BE
:104EF0003F2106913F3807900799802901D20E2063
:104F000076E7802F00D980270C98800702D50C986F
:104F1000C0070AD00C98C00709D0022640F6F573E6
:104F20003C46032E05D064B33BE00326F6E713208E
:104F30005EE77CB94FEA514800200124DFF8A8C29F
:104F4000ACF1100C01E0401C64003CF810200AB1E8
:104F50004245F8D9B1FBF4F0BDF8282002EB800CF3
:104F60000CF1070CBCFBF2F94FF020080022039271
:104F70004FF6F572904202D99C4A90422DD90E20EC
:104F800036E74FEA113800200124DFF85CC2ACF1AB
:104F90001E0C01E0401C64003CF810200AB14245A0
:104FA000F8D9B1FBF4F0984203D9042202EB400295
:104FB00006E0012600EB4000401C032202EB5002F9
:104FC000BDF828000244521EB2FBF0F94FF0010870
:104FD000019A5201B2FBF0F00390069800EB080A28
:104FE00003980AEB0002029809FB0022099802EBE1
:104FF000000CACF1010C401E2CEA000CACEB0200E2
:10500000032E1AD0DDF808C0B0FBFCFE0CFB1E0C12
:10501000BCF1000F04D0401E08F101080AF1010A9A
:10502000DDF808C0B0FBFCF08144069802EB0412E6
:10503000101A884204D90E20DAE680448244F4E74C
:105040000298A1EB080209FB10220398101AB0FB8A
:10505000F4F00890032E0AD108984FF6F5729042AA
:1050600005D817B967087FF45BAF0E20C0E6022EA3
:105070001FD108984FF6F572904211D92FB94020F0
:10508000B0EB440F01D367004AE70C98800701D5C5
:10509000032645E717B96700802FF5D90E20A7E64C
:1050A0000898984205D817B96700802FECD90E20D0
:1050B0009EE6012E04D10898984201D90E2097E669
:1050C000BDF828200021284601F051F80B2248A104
:1050D000284601F043F8BDF8281005F10B0001F057
:1050E0003BFF6C731FFA88F105F10E0001F034FFED
:1050F00002982874032E0FD0019881B205F1110097
:1051000001F02AFF0799B1F5803F07D289B205F176
:10511000130001F021FF05E00020EEE705F120007B
:1051200001F012FFF82068753F2105F1180001F029
:1051300013FFFF2105F11A0001F00EFF05F11C001D
:10514000069901F001FF80274FF02908032E27D090
:1051500000F011FF014605F1270001F0F5FE1FFAEE
:1051600089F105F1160001F0F7FE85F8247085F845
:105170002680132221A105F12B0000F0EFFF4AF653
:10518000552705F5FF703946804601F0E5FE0123FD
:105190002946069A0B98FFF72DFD10B3012027E64C
:1051A00000F0E9FE014605F1430001F0CDFE49465D
:1051B00005F1240001F0C8FE022105F12C0001F0E8
:1051C000C3FE012105F1300001F0C6FE062105F104
:1051D000320001F0C1FE85F8407085F8428013224C
:1051E00016E01BE08020012064820008F5FFFF0F1D
:1051F000EBFE904D53444F53352E30004E4F204E12
:10520000414D4520202020464154202020202000D0
:105210005FA105F1470000F0A1FFB0E7032E32D1F6
:10522000069A0123921D29460B98FFF7E3FCBDF86F
:1052300028200021284600F09AFF5A49284601F00C
:1052400083FE594905F5F27001F07EFE089905F5D7
:10525000F470491E01F078FE022105F5F67001F0A8
:1052600073FE3946404601F077FE069A0123D21DAF
:1052700029460B98FFF7BEFC069A0123521C2946CB
:105280000B98FFF7B7FCBDF8280000210BFB00F2DC
:10529000284600F06CFF0020009038E0032E0BD071
:1052A000012E1AD06FF00701284601F04DFE4F463F
:1052B0005F4514D9D84613E06FF00701284601F086
:1052C00043FE4FF0FF31281D01F03EFE6FF07041AC
:1052D00005F1080001F038FEE9E73449E4E7B84693
:1052E0004346524629460B98FFF784FC08B101203B
:1052F0007EE5BDF828200021284600F038FFC24492
:10530000A7EB0807002FD3D10098401C009002990A
:1053100000988842C2D3032E00D0039C5C4501D97B
:105320005F4600E027463B46524629460B98FFF76A
:1053300061FC08B101205BE5BA44E41B002CEDD10F
:10534000032E05D00798B0F5803F03D3062204E072
:105350000C2202E0022E16D001220C9800070AD47B
:1053600007980490002005902B4604A90B98FFF79E
:105370008DF80028BCD1002211460B98FFF7EEFBF8
:1053800018B1012034E50422E7E7002030E50000F1
:105390004E4F204E414D452020202046415433326F
:1053A000202020005252614172724161F8FFFF00DB
:1053B00017B581B0144602980090684600F0DDFDF4
:1053C000002802DA0B2004B010BD0A4B53F820105D
:1053D000002201B10A70019901B10A7043F820104E
:1053E0002CB1002201A902A800F0C8FEEBE70020C2
:1053F000E9E70000802001202DE9F743ADF50E7D9F
:105400000546002D0BD002F03F06324681A98FA839
:1054100000F0B4FE04464FF000082CB1CCE00920A7
:105420000DF5117DBDE8F0838198829001A901619D
:1054300082A88F9900F091FC0446200004D19DF8C9
:105440003302000600D5062416F01C0F4BD044B1E1
:10545000042C03D182A8FFF751FA044646F008064F
:1054600009E09DF80E0210F0110F01D0072402E0B0
:10547000700700D50824ACBB300740D500F07BFD99
:105480000746899839460E3001F05EFD8998394605
:10549000163001F059FD8999819800F08EFD07467C
:1054A00089992020C87200228999819801F038FDDD
:1054B000899800211C3001F047FD81980121C170BD
:1054C00087B1D0F834900022394682A801F0ECFC74
:1054D00004463CB94946819800F090FF0446819803
:1054E0007F1E47610BE054B99DF80E02C10601D53D
:1054F000042404E0B10702D5C00700D0072444B952
:10550000300701D546F040068198406B28628998A3
:105510006862ECBB8999819800F04FFDA86089987A
:105520001C3000F05DFDE860819828608198C0889B
:10553000A8802E7485F81180C5F81C80C5F81480E9
:1055400005F128004FF480520021814600F00FFE43
:10555000B00631D5EE68DEB16E61819847898089E9
:105560004743A9680AE0284600F08EFC014601295D
:1055700000D80224481C00D10124F61B0CB9BE42FD
:10558000F1D8A96124B981988289B6FBF2F300E0D1
:1055900012E002FB13627AB1FEF798FD88B181999F
:1055A0008A89B6FBF2F20244EA614878012349464F
:1055B000FFF7FCFA00B101240CB1C5F800802046C9
:1055C0002EE70224F8E72DE9FC5F044688461646DC
:1055D00099460020C9F800006946204602F00CF9FF
:1055E000002812D1607C00280FD1207CC0070BD08E
:1055F0006169E068401A864200D9064604F1280035
:105600004FF0010A019097E00720BDE8FC9F009A47
:1056100060699189B0FBF1F301FB1303002B6CD19E
:10562000B0FBF1F55189491E0D4075B940B12046D6
:10563000A16900F029FC022804D202206074E4E78A
:10564000A068F8E7411C1CD0A061A1690098FEF792
:105650003DFDD0B100EB050B00988189B6FBF1F759
:105660004FB34189EA198A4200D94F1B40783B4623
:105670005A464146FFF79AFA50B184F811A001202A
:10568000C3E784F811A00120BFE702206074BCE7E3
:10569000207C00060BD5E069A0EB0B00B84206D2D7
:1056A00000998A89019900FB028000F057FD00985B
:1056B00085897D4336E0E2695A451CD0217C090684
:1056C0000DD5407801230199FFF794FA18B184F8B9
:1056D00011A0012099E7207C00F07F002074009841
:1056E00001235A4640780199FFF760FA18B184F80F
:1056F00011A0012089E7C4F81CB000986169808975
:10570000B1FBF0F200FB1212851AB54200D9354602
:10571000B1FBF0F200FB1210011928312A46404675
:1057200000F01CFD761BD9F800002844C9F80000E1
:10573000A844606928446061002E7FF468AF0020AF
:1057400063E7F8B504466946204602F055F800289C
:105750000ED1217C4A060BD508060ED50098E269C9
:105760000123407804F12801FFF744FA08B1012031
:10577000F8BD207C00F07F00207400F0FCFB0646A2
:10578000216A009800F03AFE0028F1D1656AE87AB3
:1057900040F02000E8722946A268206801F0C0FBB2
:1057A00005F11C00E16801F0CFFB314605F1160060
:1057B00001F0CAFB002105F1120001F0CDFB0098B9
:1057C0000121C17001F0DAFB217C01F0BF012174DD
:1057D000F8BD2DE9FC5F0446884616469946002030
:1057E000C9F800006946204602F006F8002806D1F4
:1057F000607C002803D1207C800702D40720BDE80C
:10580000FC9F6069811900D3C64304F128004FF062
:10581000010A0190B1E0009A60699189B0FBF1F34F
:1058200001FB1303002B7CD1B0FBF1F55189491E1C
:105830000D40F5B968B12046A169FEF79DFC00282E
:1058400070D001280DD0411C0ED0A061A16879B1A3
:105850000FE0A0680028F2D100212046FEF78CFC62
:10586000EDE702206074CAE784F811A00120C6E7C2
:10587000A060207C00060FD50098E26901234078E3
:105880000199FFF7B7F918B184F811A00120B6E724
:10589000207C00F07F002074A1690098FEF716FCC0
:1058A000B0B100EB050B00988189B6FBF1F737B377
:1058B0004189EA198A4200D94F1B40783B465A4633
:1058C0004146FFF797F930B184F811A0012096E71F
:1058D0000220607493E7E069A0EB0B00B8420AD2A3
:1058E00000998A8900FB0281019800F037FC207C36
:1058F00000F07F002074009885897D432EE0E169E7
:10590000594510D0E268616991420CD24078012378
:105910005A460199FFF74AF928B184F811A00120ED
:105920006DE702E02CE0C4F81CB000986169808942
:10593000B1FBF0F200FB1212851AB54200D93546D0
:10594000B1FBF0F200FB1210204428302A464146F9
:1059500000F004FC207C40F080002074761BD9F815
:1059600000002844C9F80000A84460692844606128
:10597000E168884200D80846E060002E7FF44BAF13
:10598000207C40F040002074002038E770B50122F0
:1059900046A14748FFF70CFD0446214645A0FEF707
:1059A000E3F849A0FEF7E0F80D2C1CD14FF480532A
:1059B0004D4A00213DA0FFF70FFA04464BA0FEF729
:1059C000D3F821463DA0FEF7CFF8012237A10020F1
:1059D000FFF7EEFC012235A13548FFF7E9FC01464F
:1059E00036A0FEF7C1F846A0FEF7BEF8132249A183
:1059F0004E48FFF701FD4D4D4D4CF8B900212846AA
:105A0000FFF72AF923460A224AA12846FFF7E1FEBA
:105A100006464CA02168FEF7A7F87EB9002128466B
:105A2000FFF71AF9231D49492846EA68FFF7CBFD1D
:105A300020B9464946A06268FEF796F83B48FFF752
:105A4000FBF8014648A0FEF78FF813224BA1374818
:105A5000FFF7D2FC002820D100213448FFF7FCF8E2
:105A6000334B0A224BA13148FFF7B3FE064635A05F
:105A70002168FEF779F886B900212C48FFF7ECF889
:105A80002B4B32491B1D2948EA68FFF79CFD20B9C2
:105A90002E492FA06268FEF767F82448FFF7CCF87C
:105AA0000146BDE8704030A0FEF75EB8313A000014
:105AB00020F00020665F6D6F756E74207265732034
:105AC0003D2025640D0A0000D5E2CAC7D2BBB8F656
:105AD0004641544653CEC4BCFECFB5CDB3D2C6D694
